ZCL_TR_DTP_GLCLS_METH         I_METH1                       0  210001 0000TRAINEE01   20190517TRAINEE01   201905170       0 0                                                                                                                                     000000000000                                                            
ZCL_TR_DTP_GLCLS_METH         I_METH1                       1  210001 0000TRAINEE01   20190517            000000000       0 0                                                                                                                                     000000000000                                                            
ZCL_TR_DTP_GLCLS_METH         S_METH2                       1  210002 0000TRAINEE01   20190517            000000001       0 0                                                                                                                                     000000000000                                                            
