ZTR_CNDT_GL_CLASS_IT_TAB      GET_MAT                       E_TAB                         100030000TRAINEE04   20190717            00000000111TABLE                                                                                                                                000000000000                                                                                                                                     0
ZTR_CNDT_GL_CLASS_IT_TAB      GET_MAT                       I_MATNR1                      100010000TRAINEE04   20190717            00000000011MATNR                                                                                                                                000000000000'1'                                                                                                                                  0
ZTR_CNDT_GL_CLASS_IT_TAB      GET_MAT                       I_MATNR2                      100020000TRAINEE04   20190717            00000000011MATNR                                                                                                                                000000000000'100'                                                                                                                                0
ZTR_CNDT_GL_CLASS_IT_TAB      GET_MAT                       MAT_NOT_FOUND                 100010000TRAINEE04   20190717            00000000000                                                                                                                                     000000000000                                                                                                                                     0
