ZTR_DTP_GL_MAT                METH_MAT                      E_MATTAB                      100030000TRAINEE01   20190517            00000000111TABLE                                                                                                                                000000000000                                                                                                                                     0
ZTR_DTP_GL_MAT                METH_MAT                      I_MATNR1                      100010000TRAINEE01   20190517            00000000011MATNR                                                                                                                                000000000000'1'                                                                                                                                  0
ZTR_DTP_GL_MAT                METH_MAT                      I_MATNR2                      100020000TRAINEE01   20190517            00000000011MATNR                                                                                                                                000000000000'100'                                                                                                                                0
ZTR_DTP_GL_MAT                METH_MAT                      MAT_NOT_FOUND                 100010000TRAINEE01   20190517            00000000000                                                                                                                                     000000000000                                                                                                                                     0
