ZTR_CNDT_OOABAP_GL_CL_EVENTS  GET_MATERIAL                  IT_TAB                        100030000TRAINEE01   20190724TRAINEE01   20190724111ZTR_CNDT_TT                                                                                                                          000000000000                                                                                                                                     0
ZTR_CNDT_OOABAP_GL_CL_EVENTS  GET_MATERIAL                  I_MATNR1                      100010000TRAINEE01   20190724            00000000011MATNR                                                                                                                                000000000000                                                                                                                                     0
ZTR_CNDT_OOABAP_GL_CL_EVENTS  GET_MATERIAL                  I_MATNR2                      100020000TRAINEE01   20190724            00000000011MATNR                                                                                                                                000000000000                                                                                                                                     0
