ZTR_CNDT_OOABAP_GL_CL_EVENTS  GET_MATERIAL                  1  210001 0000TRAINEE01   20190724            000000000       0 0                                                                                                                                     000000000000                                                            
ZTR_CNDT_OOABAP_GL_CL_EVENTS  MAT_EVENT                     0  210001 0000TRAINEE09   20190724            000000000       0 0                                                                                                                                     000000000000                                                            
ZTR_CNDT_OOABAP_GL_CL_EVENTS  MAT_EVENT                     1  210001 0000TRAINEE01   20190724            000000000       0 0                                                                                                                                     000000000000                                                            
