ZTR_CNDT_OOABAP_CONST         CLASS_CONSTRUCTOR             0  210001 0000TRAINEE01   20190723            000000001       0 0                                                                                                                                     000000000000                                                            
ZTR_CNDT_OOABAP_CONST         CONSTRUCTOR                   0  210002 0000TRAINEE01   20190723TRAINEE01   201907230       0 0                                                                                                                                     000000000000                                                            
ZTR_CNDT_OOABAP_CONST         METH1                         0  210003 0000TRAINEE01   20190723TRAINEE01   201907230       0 0                                                                                                                                     000000000000                                                            
