ZTR_CGKL_OOABAP_GL_CLS_EVENTS GET_MATERIAL                  IT_TAB                        100030000TRAINEE02   20190302TRAINEE06   20190409111ZTR_CGKL_MAT_TT                                                                                                                      000000000000                                                                                                                                     0
ZTR_CGKL_OOABAP_GL_CLS_EVENTS GET_MATERIAL                  I_MATNR1                      100010000TRAINEE02   20190302            00000000011MATNR                                                                                                                                000000000000                                                                                                                                     0
ZTR_CGKL_OOABAP_GL_CLS_EVENTS GET_MATERIAL                  I_MATNR2                      100020000TRAINEE02   20190302            00000000011MATNR                                                                                                                                000000000000                                                                                                                                     0
