ZCL_TR_BNGL_GL_CLASS1         TIGER                         ITTABLE                       000030000TRAINEE10   20190408            00000000111TABLE                                                                                                                                000000000000                                                                                                                                     0
ZCL_TR_BNGL_GL_CLASS1         TIGER                         NUM1                          000010000TRAINEE10   20190408            00000000011I                                                                                                                                    00000000000020                                                                                                                                   0
ZCL_TR_BNGL_GL_CLASS1         TIGER                         NUM2                          000020000TRAINEE10   20190408            00000000011I                                                                                                                                    00000000000030                                                                                                                                   0
