ZCL_TR_BNGL_GL_CLASS1         I_V1                          1  210001 0000TRAINEE05   20190404TRAINEE11   201904040       0 1I                                                                                                                                    000000000000                                                            
ZCL_TR_BNGL_GL_CLASS1         LION                          0  210002 0000TRAINEE10   20190408            000000001       0 0                                                                                                                                     000000000000                                                            
ZCL_TR_BNGL_GL_CLASS1         TIGER                         0  210001 0000TRAINEE10   20190408            000000000       0 0                                                                                                                                     000000000000                                                            
ZCL_TR_BNGL_GL_CLASS1         S_V2                          1  210002 0000TRAINEE11   20190404TRAINEE11   201904040       0 1I                                                                                                                                    000000000000                                                            
