ZCL_TR_ATP_GL_CLS_METH        I_METH1                       1  210001 0000TRAINEE05   20181031            000000000       0 0                                                                                                                                     000000000000                                                            
ZCL_TR_ATP_GL_CLS_METH        S_METH2                       1  210002 0000TRAINEE05   20181031            000000001       0 0                                                                                                                                     000000000000                                                            
ZCL_TR_ATP_GL_CLS_METH        S_METH3                       1  210003 0000TRAINEE05   20181031            000000001       0 0                                                                                                                                     000000000000                                                            
