ZCL_TR_BNGL_MATMASTER_CONST   CONSTRUCTOR                   E1                            100010000TRAINEE05   20190405            00000000000                                                                                                                                     000000000000                                                                                                                                     0
ZCL_TR_BNGL_MATMASTER_CONST   CONSTRUCTOR                   I_MAT123                      100010000TRAINEE05   20190405            00000000011MATNR                                                                                                                                000000000000                                                                                                                                     0
ZCL_TR_BNGL_MATMASTER_CONST   METH_MAT                      E_TAB                         100030000TRAINEE05   20190405            00000000111TABLE                                                                                                                                000000000000                                                                                                                                     0
ZCL_TR_BNGL_MATMASTER_CONST   METH_MAT                      I_MATNR1                      100010000TRAINEE05   20190405            00000000011MATNR                                                                                                                                000000000000                                                                                                                                     0
ZCL_TR_BNGL_MATMASTER_CONST   METH_MAT                      I_MATNR2                      100020000TRAINEE05   20190405            00000000011MATNR                                                                                                                                000000000000                                                                                                                                     0
ZCL_TR_BNGL_MATMASTER_CONST   METH_MAT                      MAT_NOT_FOUND                 100010000TRAINEE05   20190405            00000000000                                                                                                                                     000000000000                                                                                                                                     0
