ZCL_TR_BNGL_MATMASTER_CONST   CLASS_CONSTRUCTOR             0  210001 0000TRAINEE05   20190405            000000001       0 0                                                                                                                                     000000000000                                                            
ZCL_TR_BNGL_MATMASTER_CONST   CONSTRUCTOR                   0  210002 0000TRAINEE05   20190405TRAINEE05   201904050       0 0                                                                                                                                     000000000000                                                            
ZCL_TR_BNGL_MATMASTER_CONST   METH_MAT                      0  210003 0000TRAINEE05   20190405TRAINEE05   201904050       0 0                                                                                                                                     000000000000                                                            
ZCL_TR_BNGL_MATMASTER_CONST   METH_MAT                      1  210002 0000TRAINEE05   20190405TRAINEE05   201904050       0 0                                                                                                                                     000000000000                                                            
ZCL_TR_BNGL_MATMASTER_CONST   CONSTRUCTOR                   1  210001 0000TRAINEE05   20190405            000000000       0 0                                                                                                                                     000000000000                                                            
