ZTR_BNGL_OOABAP_GL_CL_EVENTS  GET_MATERIAL                  IT_TAB                        100030000TRAINEE06   20190409TRAINEE06   20190409111ZTR_BNGL_MAT_TT                                                                                                                      000000000000                                                                                                                                     0
ZTR_BNGL_OOABAP_GL_CL_EVENTS  GET_MATERIAL                  I_MATNR1                      100010000TRAINEE06   20190409            00000000011MATNR                                                                                                                                000000000000                                                                                                                                     0
ZTR_BNGL_OOABAP_GL_CL_EVENTS  GET_MATERIAL                  I_MATNR2                      100020000TRAINEE06   20190409            00000000011MATNR                                                                                                                                000000000000                                                                                                                                     0
